:100000000C9468170C9490170C9490170C949017FC
:100010000C9490170C9490170C945E230C949017EA
:100020000C9490170C9490170C9490170C949017B4
:100030000C9490170C9490170C9490170C949017A4
:100040000C94F9210C9490170C94C7210C94A121C5
:100050000C9490170C9490170C9490170C94901784
:100060000C9443220C94901708000000BE9224497F
:10007000123EABAAAA2ABECDCCCC4C3E00000080DA
:10008000BEABAAAAAA3E00000000BF000000803F4D
:100090000000000000084178D3BB4387D1133D190D
:1000A0000E3CC3BD4282AD2B3E68EC8276BED98F3A
:1000B000E1A93E4C80EFFFBE01C4FF7F3F0000007E
:1000C00000007F1F8207840684068407827F1882CF
:1000D00007840684068407827F20278E0F900D9266
:1000E0000D9001800881018E0182068310840485B1
:1000F0000E8504850E8504850E8504850E85048590
:100100000E8504850E8504850E8504850E8504857F
:100110000E8504850E8504850E8504850E8504856F
:100120000E85048410840482028E0282048002926E
:100130000280069609940C9002811B83198519850B
:1001400019851985198519851985198519851985BF
:1001500019851985198519851A830B8E01810B90D4
:100160000D920D900F8E28278E0F900D920D9001FD
:10017000800881018E01820683108404850E850427
:10018000850E8504850E8504850E8504850E8504FF
:10019000850E8504850E8504850E8504850E8504EF
:1001A000850E8504850E8504850E8504850E8504DF
:1001B0008410840482028E028204800292028006ED
:1001C00096068001940782019002810484118304C1
:1001D000850E8504850E8504850E8504850E8504AF
:1001E000850E8504850E8504850E8504850E85049F
:1001F000850E8504850E8504850E8504850E85048F
:10020000850E8504850E85058310830781018E0187
:10021000810B900D920D900F8E28278E0F900D92CE
:100220000D9001800C8E01821B841985198519851A
:1002300019851985198519851985198519851985CE
:10024000198519851A841C821E805D811B8319857E
:1002500019851985198519851985198519851985AE
:10026000198519851985198519851A831C817F249B
:10027000278E0F900D920D900B81018E0B831A85A6
:10028000198519851985198519851985198519857E
:10029000198519851985198519841A82028E0A8093
:1002A00002920A96068001940782019002810484DA
:1002B000118304850E8504850E8504850E850485CD
:1002C0000E8504850E8504850E8504850E850485BE
:1002D0000E8504850E8504850E8504850E850485AE
:1002E0000E8504850E8504850E85058310830781A0
:1002F000018E01810B900D920D900F8E28278E0F8D
:10030000900D920D900B81018E0B831A8519851922
:1003100085198519851985198519851985198519ED
:10032000851985198519841A82028E0A8002920A1B
:100330009609940C9002811B8319851985198519DA
:1003400085198519851985198519851985198519BD
:1003500085198519851A830B8E01810B900D920DDD
:10036000900F8E287F1980088112820683108404E2
:10037000850E8504850E8504850E8504850E85040D
:10038000850E8504850E8504850E8504850E8504FD
:10039000850E8504850E8504850E8504850E8504ED
:1003A000850E85048410840482028E0282048002F9
:1003B000920280069609940C9002811B831985197C
:1003C000851985198519851985198519851985193D
:1003D0008519851985198519851A831C817F24271C
:1003E0008E0F900D920D9001800C8E01821B84194E
:1003F000851985198519851985198519851985190D
:100400008519851985198519851A840A8E0282082D
:10041000920280069609940C9002811B831985191B
:1004200085198519851985198519851985198519DC
:100430008519851985198519851A830B8E01810BFC
:10044000900D920D900F8E28278E0F900D920D908B
:1004500001800C8E01821B841985198519851985E7
:10046000198519851985198519851985198519859C
:1004700019851A840A8E02820892028006960680E6
:1004800001940782019009841A85198519851985B7
:10049000198519851985198519851985198519856C
:1004A000198519851A831C81018E0F900D920D906C
:1004B0000F8E287F19801D821B8419851985198547
:1004C000198519851985198519851985198519853C
:1004D000198519851B831D811E805D811B831985EC
:1004E000198519851985198519851985198519851C
:1004F000198519851985198519851A831C817F2409
:10050000278E0F900D920D9001800881018E01823F
:100510000683108404850E8504850E8504850E856A
:1005200004850E8504850E8504850E8504850E855B
:1005300004850E8504850E8504850E8504850E854B
:1005400004850E8504850E8504841084048214823B
:100550000480188024801E82158104841183048500
:100560000E8504850E8504850E8504850E8504851B
:100570000E8504850E8504850E8504850E8504850B
:100580000E8504850E8504850E8504850E850485FB
:100590000E8504850E85058310830781018E0181F8
:1005A0000B900D920D900F8E287F7F7F7B820784AA
:1005B000068406840782107F7F7F7F3F7F7F1086BF
:1005C0000C83028B0983018D0883008F07880586C1
:1005D0000686098406850B8405840D8305840D83B6
:1005E00005840D8404830F8304830F8304830F83A6
:1005F00004830F8304830F8304830F8304830F8397
:1006000004830F8304830E8404840D8305840C8487
:1006100005850B8405860984068805860683008F78
:100620000783018D0883028B098304860C8318835A
:1006300018831883188318831883188318831883E2
:10064000327F7F7F058607860A830289048A0883B2
:10065000008C028C0783008D008E06870589058437
:1006600006850886088405840A840A8305840A842A
:100670000A8305830B830B8305830B830B8305831D
:100680000B830B8305830B830B8305830B830B8306
:1006900005830B830B8305830B830B8305830B83FC
:1006A0000B8305830B830B8305830B830B830583EC
:1006B0000B830B8305830B830B8305830B830B83D6
:1006C00005830B830B8305830B830B8305830B83CC
:1006D0000B8305830B830B8305830B830B830583BC
:1006E0000B830B837F7F7F7A7F7B880F8D0A900936
:1006F000910785068506840A8405830C8305830C8F
:100700008305830C83168315840E8B09900792064C
:100710008D01830588078305840B8304840C83047F
:10072000830D8304830D8304830C8404830B85046D
:100730008409860584068A038F0184048D0284055A
:100740008A058307867F7F357F1A84098409840997
:100750008409847F3D8409840984098409847F7421
:1007600022880F8C0C8F09910786058605850984E0
:1007700005840B8404830D8303840D8303830F831B
:1007800002830F8302830F8302830F8302830F830D
:1007900002840D8403830D8403840B8504840986FD
:1007A000048605880594068E0083078B02830A86DB
:1007B000048316831583168303830E8303830D84BA
:1007C00003840C8305830B840584098506850586CF
:1007D00008900A8E0C8B11867F7F332485118B0C39
:1007E0008F0991078605860684098405840B840495
:1007F000840B8404830D8304830D8304830D83049D
:10080000840B8405830B8306840984078505850989
:100810008F0B8D0B8F09910785078505840B840449
:10082000830D8303840D8402830F8302830F83026D
:10083000830F8302830F8302830F8302840D84025C
:10084000840D8403840B840486078605930791092D
:100850008F0D897F7F313796039603960396168313
:1008600015831583158315841484148415831584C6
:1008700014841584148415831584158315841584B4
:1008800015831584158316831584158316831683A3
:10089000168315841583168316837F7F5324861150
:1008A0008B0C8E0A90088605850685098405840BC5
:1008B0008305830C8403840D8303830E83038316D3
:1008C000831583168304860A83028B0783008E06B2
:1008D00094058805860486098404850B8403840DA9
:1008E0008303840D8402830F8302830F8302830FAB
:1008F0008302830F8302830F8303830D8403830D9D
:100900008304840B8405840985058605860791097F
:100910008F0C8C0F887F7F313A9108910891089154
:10092000088216831683168316821782178216830F
:1009300002870B83008B099108920786058606843F
:10094000098505830B841683168416831683168304
:100950001683168303830E8303830D8403830D8321
:1009600004840B8405840985058605860791098F13
:100970000B8D0F877F7F3245831584148513861373
:100980008612871183008311830083108301830FF4
:100990008302830E8402830E8303830D8304830CFE
:1009A0008305830B8405830B8306830A83078309EE
:1009B000840783098308830883098307830A8307DD
:1009C0009702970297029711831683168316831650
:1009D0008316831683168316837F7F4A23870F8DA2
:1009E0000B900891078605860684098405840B848C
:1009F00004840B8404830D8304830D8304830D839B
:100A000015841584148414850D8B0E89108B0E8C1F
:100A1000148615841684158402830F8302830F8342
:100A200002830F8302840D8402840C8503840B846B
:100A300004850985058605860791098F0B8D0F872B
:100A40007F7F4D2487108C0B8F09910885058606C2
:100A500084098406840A8306830B8404840C83043B
:100A6000830D8304830D8304830D831683158415FE
:100A70008414841485138512861187108810880FBA
:100A800088108711861285138514841484158316A3
:100A90008315960396039603967F7F4529821782D6
:100AA000168316831584148512870D8C0D8C0D8783
:100AB00000830D840383168316831683168316839F
:100AC000168316831683168316831683168316835E
:100AD000168316831683168316831683168316834E
:100AE0001683168316837F7F4C23870F8D0B8F0908
:100AF00091078605860684098406830B8305840B8B
:100B00008404830D8304830D8304830D8303830F87
:100B10008302830F8302830F8302830F8302830F79
:100B20008302830F8302830F8302830F8302830F69
:100B30008302830F8302830F8302830F8302830F59
:100B40008302830F8303830D8304830D8304830D4A
:100B50008304840B8405830B83068409840686053D
:100B6000860791098F0B8D0F877F7F327F7F7F559F
:100B70008409840984098409847F387F7F458A0534
:100B80008A058A058A7F7F7F2B7F7F7F7F3F1911B0
:100B9000830981018107810382038000800681012E
:100BA00081008007837F7F2C01830A820A810A816A
:100BB0000A810A810A810A810A810A810A810B81DC
:100BC0000B82088109810A810A810A810A810A81CE
:100BD0000A810A810A81098207831304810A810A32
:100BE000810A810A810A810A810A810A810A810AAD
:100BF000810A810A810A810A810A810A810A810A9D
:100C0000810A810A810A810A810A810A8112068386
:100C1000078209810A810A810A810A810A810A817F
:100C20000A810A81098108820B810B810A810A816C
:100C30000A810A810A810A810A810A810A820A8359
:100C40000E48890189088207820782078208810885
:100C50008207820782078208890189544D820682B1
:100C60000081068101810681028104810381048162
:100C70000381048104810281058102810581028151
:100C80000681008107810081078100810882098235
:100C900009820981098206840783144E8106810135
:100CA000820482028104810481028105820082061D
:100CB00084088208840682008205810281048104FE
:100CC0008102820482018106815B6B81048204813E
:100CD00000810482048100810480008004810181FC
:100CE00002810081028102810281008102810281F0
:100CF00002810081028102810280028002810381DF
:100D000000810281008104810081028100810481CF
:100D100000810281008105820482068204820682AB
:100D200004827F014781068100810681018104815F
:100D30000281048102810481038102810481028194
:100D40000481028105810081068100810684078279
:100D5000088258558106810281068102810681023E
:100D6000810681028106810281068102810681025B
:100D7000810681028106810281058202820383034A
:100D800086008104840181620F81048104810481D1
:100D9000028500850281048104810481048104812B
:100DA00004810481048104830382314A840587021B
:100DB0008203810281058101810A840786078409F3
:100DC0008101810581018203820287048556318178
:100DD00000820185018204810581058105810581EB
:100DE000058105810581058105813B5E83018104C3
:100DF00086008103830184038105820282068102C9
:100E000081078102810781028107810282068103B5
:100E10008105820383018404860081068301810C9D
:100E2000810C810C810C810C811F5B810183068107
:100E30000086048401830382058103810682028186
:100E40000781028107810281078102810682028275
:100E50000581038401830381008604810183068167
:100E60000C810C810C810C81285E8407880483022C
:100E70008303810681028206820181088101810843
:100E80008101810881018206820281068103830239
:100E900083048807846D5B81018405810086048357
:100EA0000382038205810381068103810681038118
:100EB0000681038106810381068103810681038106
:100EC000068103810681038106816A7F0581018392
:100ED00003830581008500860483028402820382E5
:100EE00004820481038105810581038105810581D7
:100EF00003810581058103810581058103810581C8
:100F000005810381058105810381058105810381B7
:100F1000058105810381058105817F1B078103818F
:100F200003810381038103810381038103810381A1
:100F30000381038103810381038103810381038191
:100F40002B198109810981098109810482018103A9
:100F5000820281028203810182048100820585056B
:100F6000860482018104810282038103810381035B
:100F700082028104810281048253078103810381FB
:100F80000F81038103810381038103810381038135
:100F90000381038103810381038103810381038131
:100FA000038101830182080781038103810F81038B
:100FB0008103810381038103810381038103810311
:100FC000810381038103812B10810C810C810C81B1
:100FD0000C810C81018405810086048303820382D5
:100FE00005810381068103810681038106810381D6
:100FF00006810381068103810681038106810381C5
:101000000681038106816A5E830181048600810373
:1010100083018403810582028107810281078102A5
:101020008107810281078102820681038105820393
:1010300083018404860081068301810C810281077B
:1010400081028106820382038204890685130A8352
:101050000284028105810581038600860281058163
:101060000581058105810581058105810581058150
:1010700005813B588307870483018303810581022F
:10108000820681018B018B01810B820B810582021B
:10109000830183048707836619810C810C810C818D
:1010A0000C8106830181048600810383018403810E
:1010B0000582028206810281078102810781028105
:1010C00007810282068103810582038301840486ED
:1010D0000081068301816A528306870383018203AC
:1010E000810581018209810A810A810A82058102C2
:1010F00081058102830182048706835E10810C8151
:101100000C810C810C810C81018306810086048492
:1011100001830382058103810682028107810281A6
:101120000781028107810281068202820581038490
:10113000018303810086048101836D57850588043E
:10114000810482038105810B810587038902820561
:101150008102810681028106810282038303860067
:101160008302840282610B830385018201820081F4
:1011700003810081038100820182018503837F1A3C
:101180007F7F1D8C261082078100810581028103EB
:10119000810481018106817F6F09840384068106B1
:1011A0008106810681068106810681068106810607
:1011B00081068106810681068106810681068106F7
:1011C000810681038403841401800B800B810B80D2
:1011D0000B800B810B800B800B810B800B800B81B4
:1011E0000B800B800B810B800B800B810B800B80A5
:1011F0000B810B800B800B810B800E0B840384030F
:1012000081068106810681068106810681068106A6
:101210008106810681068106810681068106810696
:1012200081068106810684038412118C028C0C8253
:101230000B820B820C810C810C820B820B820C8145
:101240000C810C820B820B820B820C8D018D700F36
:10125000820982008207820281078103820582045B
:101260008105810681038107820182088101810A4B
:10127000830B830C810D810D810D810D810D810DFD
:10128000810D81760F8108810182068202810681AB
:101290000481048105820282068102810881008125
:1012A00009840A820B820A810081088200820781F8
:1012B0000281068104810482048203810681028204
:1012C00006820082088268168206820682008106F3
:1012D00082068101810682068101820481008104E7
:1012E00082028104810081048103810481008104E0
:1012F00081038104810081048103820281028102D1
:1013000082048102810281028105810281028102BF
:1013100081058102810281028105820081048100B0
:10132000820681008104810081078100810481009F
:10133000810781008104810081078306830882067A
:1013400082098206827F250E82088200810881013F
:101350008108810181088102810681038106810360
:10136000810681048104810581048105810481064F
:101370008102810781028107810281088100810940
:1013800081008109840A820B826E138109810381A5
:101390000981038109810381098103810981038115
:1013A0000981038109810381098103810981038105
:1013B00009810381098103810981038109810381F5
:1013C00009810382078204820582068908877F02D9
:1013D0000D9B05810B810B810B810B810B810B8197
:1013E0000B810B810B810B810B810B810B810B819D
:1013F0000B816714850789048205820381078103B5
:101400008107810381078202820D840B860B850C84
:10141000830D820182088102810881028108810294
:10142000830582038A068673128B048C03810882EB
:101430000281098102810981028109810281098178
:1014400002810881038C038B048107820381088158
:101450000381088202810981028109810281098157
:101460000281098102810981771886098A0683042D
:10147000830482088203810A8102820A8201810C2C
:101480008101810C8101810C8101810C8101810C20
:101490008101810C81018206800282028105820124
:1014A000810382058504830483068C0786018210EC
:1014B0008073118A048B0381078202810881028173
:1014C0000881028108810281088102810782028BE2
:1014D000038A04810D810D810D810D810D810D81A6
:1014E0000D817B1886098A0683048304820882039F
:1014F000810A8102820A8201810C8101810C8101B1
:10150000810C8101810C8101810C8101810C81019F
:10151000820A8202810A810382088204830483068C
:101520008A09867F0A138208810382088103830760
:101530008103840681038100810681038100820585
:10154000810381018204810381028104810381027C
:10155000820381038103820281038104810281036A
:10156000810482018103810582008103810681005B
:101570008103810684038107830381088203810834
:10158000827F16820A82038308830383088303838E
:101590000883038100810681008103810081068127
:1015A0000081038100810681008103810181048122
:1015B0000181038101810481018103810181048111
:1015C0000181038102810281028103810281028102
:1015D00002810381028102810281038103810081F2
:1015E00003810381038100810381038103840381DB
:1015F0000381048204810381048204817F140E81AB
:101600000A810A810A810A810A810A810A810A8182
:101610000A810A810A810A810A810A810A810A8A69
:10162000018A5A128108820281078203810682049C
:101630008105820581048206810382078102820876
:10164000810182098100830987088301820782035F
:101650008206810581068105820581068204810753
:101660008203810882028109827615810A810A81BA
:101670000A810A810A810A810A810A810A810A8112
:101680000A81018106810181068101810681018231
:101690000482028804865E0781038103810381033B
:1016A000810381038103810381038103810381031A
:1016B00081038103810381038103812B13810981CC
:1016C00003810981038109810381098103810981E2
:1016D0000381098103810981038D038D03810981C0
:1016E00003810981038109810381098103810981C2
:1016F00003810981038109810381098103810981B2
:101700007F1886098A06820583048208810481097C
:101710008202820F81108110810587028105870274
:10172000810B8102810B8102820A8103810982037C
:101730008207830483048405890081078503807FF1
:1017400006108B028B02810C810C810C810C810CA8
:10175000810C8A038A03810C810C810C810C810C21
:10176000810C810C8173118C028C02810D810D81A1
:101770000D810D810D810D8B038B03810D810D81F9
:101780000D810D810D810D8C028C701389078B05E5
:101790008106830481088203810981038109820211
:1017A000810A8102810A8102810A8102810A810201
:1017B000810A8102810A81028109820281098103F1
:1017C00081088203810683048B05897F03178608BD
:1017D0008A058304830382088103810A8101820AC6
:1017E0008101810F810F810F810F810F810B810199
:1017F000820A8102810982028208810483048305AE
:101800008A08867F02128A058C0381078203810879
:101810008103810881038108810381088103810795
:1018200082038A058C038107820381098102810971
:1018300081028109810281098102810782038C036F
:101840008A7A15830B830B830A81018109810181C7
:101850000981018108810381078103810781038157
:1018600006810581058105810589048B0381078136
:101870000381078102810981018109810082098236
:101880006F21880D82068209820A8107810D8105F8
:10189000810F81048006830180038102810481021B
:1018A0008303810281038104810481018104810415
:1018B0008104810181038105810481018103810506
:1018C00081048101810381048104810281038104F7
:1018D00081048102810381048103810481038102E7
:1018E0008202810581048301840781178117810B9E
:1018F00081098205830D876C108504880382038229
:1019000001820581018106810181068109820882A7
:101910000882088209810982098223820982098258
:101920005F62820C820C830C820D81088207830720
:101930008208827F155186018613860186636B8239
:1019400008820783078208810D820D820C820C8237
:101950007F0C2B8203820382348203820382058000
:10196000048104800481172B820382038234820362
:10197000820382321F8505880482038202820581E8
:10198000028107810181078101810781018205822E
:1019900002820383028A048401810B810181068112
:1019A00002810681038104820388058665208307FE
:1019B00087058103810481058103810581038105F8
:1019C00081048103810685068704820382028107E0
:1019D00081018107810181078101810781028203E1
:1019E0008203890585651C8B018B0A810A82098225
:1019F0000A810A820A810A810B810A820A810B818B
:101A00000B810A810B810B81692084068803820483
:101A100081038106810281068101810B8101840499
:101A20008A02830382028205820181078101810784
:101A30008101810781028105820282038204880577
:101A400085651D89038903810B810B810B810084CE
:101A5000058902830382028106820B810B810B813F
:101A60000181078101820582028203820389058543
:101A70006524810A82098309830881008107810125
:101A8000810681028106810281058103810481042E
:101A90008103810581038B018B09810B810B810BF4
:101AA00081641F8506870482038203810581028287
:101AB00005810B810A82078408850B820B810181D5
:101AC00007810181078101820582028203820389E5
:101AD0000585651F850589038203820282068101CF
:101AE000810781018107810B810A820883078406AF
:101AF000840783088209820A810B8B018B62228111
:101B00000B810A82078507850B810B810B810B8175
:101B10000B810B810B810B810B810B810B810B8165
:101B20006620830787048301830381058102820580
:101B3000820181078101810781018107810181077C
:101B4000810181078101810781018107810182056E
:101B500082028105810383018304870783660D81E7
:101B60000581058005810581058005810581058048
:101B70000581058105800581058105800581058137
:101B80000580058105812D7182038203823258858B
:101B900001856871820382038205800481048004C8
:101BA0008117538107810781048701870481078199
:101BB0000781671081098109810680018101800206
:101BC00089038506830681018104820182048003E2
:101BD000807F3607810680068106800681058105A3
:101BE00081068105810581058105810581058105C4
:101BF00081058105810481058105810580058105B7
:101C00008005810D0D810580058105800581058197
:101C10000581048105810581058105810581058195
:101C20000581058105810681058105810680068182
:101C300006800681070682028202820480038102F6
:101C4000817415840A8608820282078104810781D3
:101C5000048107810382088101820A840A830B853B
:101C60000381038201820281028203820181028157
:101C70000584038106830381078104820485038828
:101C8000018203850482762D820781058605800600
:101C9000810281048105810481028106810481021F
:101CA0008007810481018108810281028009860107
:101CB000800C82028102820C8001860980028102EE
:101CC00081088101810481078002810481068102EB
:101CD00081048105810481028106800586058107D2
:101CE0008207807F0C1F850589038203820281079A
:101CF000810181078101810B820B810A8707810B9A
:101D0000810B810B810A810B860280018B0181048A
:101D100083632E8101810C8002800D8002800C8102
:101D200001810C8002800D800280088D0880028075
:101D30000D8002800D800280088D088002800D8059
:101D400002800C8101810C8002800D8002800C8158
:101D500001817F0D09800180038001800380018063
:101D60000380018003800180038001800380018063
:101D70007F110A8105810581058105810581058124
:101D80000581058105810581058105811581058113
:101D900005813A7F01000030484830000000000013
:101DA0000000000000000000324C000000000000B5
:101DB00000000000000040202020202020102020D3
:101DC0002020202040000040404040404040404013
:101DD00040404040000010202020202020402020B3
:101DE0002020202010000000000000FC04083040EB
:101DF00080FC0000000000000000008484848484D3
:101E00004C34040870000000000000888850205006
:101E10008888000000000000000000828282929208
:101E2000AA44000000000000000000828282824478
:101E300028100000000000000000008484848484D6
:101E40004C34000000000000004040E040404040B2
:101E50004030000000000000000000708880700822
:101E60008870000000000000000000B0C880808082
:101E70008080000000000000000000344C84848456
:101E80004C34040406000000000000B0C8848484C0
:101E9000C8B0808080000000000000384482828248
:101EA0004438000000000000000000B0C8848484B2
:101EB0008484000000000000000000ACD2929292E6
:101EC0009292000000000000C0404040404040406E
:101ED00040400000000000008080808890A0C0A0EA
:101EE000908800000000000000100030101010105A
:101EF0001010109060000000004000404040404042
:101F00004040000000000000808080B0C8848484CD
:101F10008484000000000000000000304C848484B1
:101F20004C340408700000003048404040E040401D
:101F30004040000000000000000000384484F880A9
:101F40004438000000000000000404344C84848401
:101F50004C34000000000000000000384480808005
:101F60004438000000000000008080B0C8848484F1
:101F7000C8B0000000000000000000700804748C6D
:101F80008C74000000000000404040200000000071
:101F90000000000000000000000000000000000041
:101FA000000000FF00000000000000000000000032
:101FB00000000000000010284400000000000000A5
:101FC0000000000000000000000000000000000011
:101FD00000000000000000E0202020202020202021
:101FE0002020E00000000004040808101020204019
:101FF00040808000000000E08080808080808080C1
:102000008080E00000000000FE0204081010204064
:1020100080FE000000000000828282442810101020
:102020001010000000000000828244281010284494
:10203000828200000000000000000080808080801C
:1020400080888088804900550055002200220000C9
:1020500000000000000000008282828244442828A0
:102060001010000000000000828282828282828240
:102070004438000000000000FE1010101010101076
:10208000101000000000000038448280601C0282B2
:102090004438000000000000F884828284F89088B0
:1020A00084820000000000003844828282828282A2
:1020B0004438080600000000F88482828284F88098
:1020C0008080000000000000384482828282828288
:1020D0004438000000000000C2C2A2A292928A8A84
:1020E0008686000000000000000000C180C180A2C0
:1020F00080A2809480948088808880808080800006
:1021000000000000000000008080808080808080CF
:1021100080FC000000000000848890A0C0A090888F
:102120008482000000000000020202020202028219
:102130004438000000000000E04040404040404083
:1021400040E000000000000084848484FC848484D7
:1021500084840000000000003C428080809C8282D9
:10216000423C000000000000FE808080F8808080FB
:102170008080000000000000FE808080FC80808065
:1021800080FE000000000000F88482828282828249
:1021900084F80000000000003C4280808080808045
:1021A000423C000000000000F8848284F8848282AF
:1021B00084F80000000000001010282844447C82AD
:1021C00082820000000000003C4299A5A5A5A59EC2
:1021D000403E000000000000384482020408101055
:1021E00000100000000000000080402010081020B7
:1021F000408000000000000000000000F800F8002F
:102200000000000000000000000810204080402076
:102210001008000000000000000000C0C000C0C0A6
:102220004080000000000000000000C0C000C0C0EE
:10223000000000000000000038448282463A02029A
:102240000478000000000000384482443844828250
:1022500044380000000000007E0202040408081058
:1022600010100000000000003C408080B8C4828252
:102270004438000000000000FC808080F804020266
:102280008478000000000000040C14244484FE0440
:1022900004040000000000007884020438040202F4
:1022A00084780000000000003844820204182040B6
:1022B00080FE0000000000001030501010101010C0
:1022C000107C000000000000384444828282824476
:1022D00044380000000000040408081010202040CA
:1022E00040808000000000000000000000000000AE
:1022F000C0C00000000000000000000000F8000066
:1023000000000000000000000000000000000000CD
:10231000C0C04080000000000000002020F8202005
:102320000000000000000000001092543854921089
:10233000000000000000C020100808040404040489
:1023400008081020C0000C10204040808080808051
:10235000404020100C000040404080000000000081
:102360000000000000000000205088885020528C9F
:102370008C730000000000006191926408102649EF
:1023800089860000000000003C42404070407040E0
:1023900040FE000000000000242424FF2424FF2429
:1023A00024240000000000A0A0A000000000000005
:1023B000000000000000000040404040404040401D
:1023C00000400000000000000000000000000000CD
:1023D00000000000000C0C0C0C0C0C0C0C0C0C0C79
:1023E0000C0C0C0C0C202020202020202020200C65
:1023F0000C0C0C0C0C0C0C0C0C0C0C0C0C0C0C0C1D
:102400000C0C0C0C0C0C0C0C0C0C0C0C0C0C0C0C0C
:102410000C0C0C0C0C0C0C0C0C0C0C0C0C0C0C0CFC
:102420000C0C0C0C0C0C0C0C0C0C0C0C0C0C0C0CEC
:102430000C0C0C0C0CB705B705B705B705B705B7FD
:1024400005B705B705B705B705B705B705B705B7AC
:1024500005A905B7050005B3044804DF036403FDBF
:102460000270021A026701DA00C200B705B705B7A9
:1024700005B705B705B705B705B705B705B705B77C
:1024800005B705B705B705B705B705B705B705B76C
:1024900005B705B705B705B705B705B705B705B75C
:1024A00005B705B705B705B705B705B705B705B74C
:1024B00005B705B705B705B705B705B705B705B73C
:1024C00005B705B705B705B705B705B705B705B72C
:1024D00005B705B705B705B705B705B705B705B71C
:1024E00005B705B705B705B705B705B705B705B70C
:1024F00005B705B7050C0C0C0C0C0C0C0C0C0C0CDB
:102500000C0C110F0C1B1B1B1B1B1B1B1B1B1B0F6A
:102510000C0C0C0C0C0C0C0C0C0C0C0C0C0C0C0CFB
:102520000C0C0C0C0C0C0C0C0C0C0C0C0C0C0C0CEB
:102530000C0C0C0C0C0C1B0C0C0C0C0C0C0C0C0CCC
:102540000C0C2A0C0C1D0C0C0C0C0C0C0C0C0C0C9C
:102550000C070C0C0C890B890B890B890B890B89D7
:102560000B890B890B890B890B890B890B890B7BD9
:102570000B6C0B890BE90A9C0A430ADC09770918E2
:10258000099D085608DB0760074807890B890B89F6
:102590000B890B890B890B890B890B890B890B899B
:1025A0000B890B890B890B890B890B890B890B898B
:1025B0000B890B890B890B890B890B890B890B897B
:1025C0000B890B890B890B890B890B890B890B896B
:1025D0000B890B890B890BE806890B890B890B8901
:1025E0000B890B890B890B890B890B890B890B4193
:1025F00006890B890BBC05890B890B890B890B8913
:102600000B890B890B890B890B890B890B890B892A
:102610000B890B890B050808130E15110608080C09
:102620000A070807080E0E0E0E0E0E0E0E0E0E07EF
:10263000070E090E0D1910111212100F1312060DAC
:10264000110D151213101311100E120F170F101079
:10265000090D090C0D090E0F0D0F0E080F0F0606C0
:102660000C06160F0F0F0F080C070E0C120D0D0C99
:102670000D0D0D0F01931D721D541D121DE51C87BC
:102680001C421C351C041CD31BB31BA21B931B8EAA
:102690001B871B5E1B211BFE1AD31AA21A711A423A
:1026A0001A091AE619AD197419671952193E193524
:1026B000192119F818811842180518CD178B1766BB
:1026C0001741170117BC1697166A162316FE1582B6
:1026D000152515E314B21469142814F313D0138AC2
:1026E000134713C71284124F122A12FB11C81199F3
:1026F000118511801166113B11FC10D710981073D1
:10270000104E100710C80FA70F7A0F410F1C0FCBE8
:102710000E960E690E2A0EEB0DCE0DAB0D880D53E5
:102720000D240DCA0C9B0C5C0C410C0E0CDB0BA891
:102730000B8F0B8E0B00000000003E5B4F5B3E3E9C
:102740006B4F6B3E1C3E7C3E1C183C7E3C181C575D
:102750007D571C1C5E7F5E1C00183C1800FFE7C301
:10276000E7FF0018241800FFE7DBE7FF30483A06D0
:102770000E2629792926407F050507407F05253F3C
:102780005A3CE73C5A7F3E1C1C08081C1C3E7F1428
:10279000227F22145F5F005F5F06097F017F006672
:1027A00089956A606060606094A2FFA29408047ECC
:1027B000040810207E201008082A1C08081C2A087B
:1027C000081E101010100C1E0C1E0C30383E383035
:1027D000060E3E0E06000000000000005F00000034
:1027E00007000700147F147F14242A7F2A12231362
:1027F00008646236495620500008070300001C2276
:1028000041000041221C002A1C7F1C2A08083E08A7
:1028100008008070300008080808080000606000A8
:1028200020100804023E5149453E00427F4000729C
:10283000494949462141494D331814127F10274513
:102840004545393C4A494931412111090736494931
:102850004936464949291E00001400000040340052
:102860000000081422411414141414004122140806
:1028700002015909063E415D594E7C1211127C7FBE
:10288000494949363E414141227F4141413E7F49CC
:102890004949417F090909013E414151737F0808B7
:1028A000087F00417F41002040413F017F08142202
:1028B000417F404040407F021C027F7F0408107F20
:1028C0003E4141413E7F090909063E4151215E7F5B
:1028D00009192946264949493203017F01033F402E
:1028E00040403F1F2040201F3F4038403F631408B6
:1028F000146303047804036159494D43007F414147
:10290000410204081020004141417F0402010204F9
:102910004040404040000307080020545478407F66
:10292000284444383844444428384444287F3854A0
:1029300054541800087E090218A4A49C787F080447
:10294000047800447D40002040403D007F10284432
:102950000000417F40007C047804787C08040478FF
:102960003844444438FC1824241818242418FC7CC7
:1029700008040408485454542404043F44243C40AC
:1029800040207C1C2040201C3C4030403C4428100F
:1029900028444C9090907C4464544C440008364148
:1029A0000000007700000041360800020102040226
:1029B0003C2623263C1EA1A161123A4040207A38D1
:1029C0005454555921555579412154547841215534
:1029D00054784020545579400C1E52721239555586
:1029E0005559395454545939555454580000457C5C
:1029F000410002457D420001457C40F0292429F038
:102A0000F0282528F07C545545002054547C547CF3
:102A10000A097F4932494949323248484832324AE4
:102A20004848303A4141217A3A42402078009DA0FE
:102A3000A07D39444444393D4040403D3C24FF247E
:102A400024487E4943662B2FFC2F2BFF0929F620B3
:102A5000C0887E090320545479410000447D4130F0
:102A600048484A32384040227A007A0A0A727D0D7C
:102A700019317D2629292F28262929292630484D34
:102A80004020380808080808080808382F10C8AC83
:102A9000BA2F102834FA00007B000008142A1422F0
:102AA00022142A1408AA005500AAAA55AA55AA0059
:102AB0000000FF00101010FF00141414FF0010108D
:102AC000FF00FF1010F010F0141414FC001414F7A1
:102AD00000FF0000FF00FF1414F404FC141417108E
:102AE0001F10101F101F1414141F00101010F000DE
:102AF0000000001F101010101F10101010F0100018
:102B00000000FF101010101010101010FF10000027
:102B100000FF140000FF00FF00001F10170000FC62
:102B200004F414141710171414F404F40000FF0034
:102B3000F714141414141414F700F71414141714BD
:102B400010101F101F141414F4141010F010F000C3
:102B5000001F101F0000001F14000000FC140000E4
:102B6000F010F01010FF10FF141414FF14101010C8
:102B70001F00000000F010FFFFFFFFFFF0F0F0F07B
:102B8000F0FFFFFF0000000000FFFF0F0F0F0F0F0F
:102B900038444438447C2A2A3E147E020206060247
:102BA0007E027E0263554941633844443C04407EC2
:102BB000201E2006027E020299A5E7A5991C2A493B
:102BC0002A1C4C7201724C304A4D4D3030487848C6
:102BD00030BC625A463D3E494949007E0101017EB2
:102BE0002A2A2A2A2A44445F444440514A44404005
:102BF000444A51400000FF0103E080FF0000080844
:102C00006B6B083612362436060F090F06000018C3
:102C1000180000001010003040FF0101001F0101EA
:102C20001E00191D1712003C3C3C3C000000000037
:102C3000C523B523A5239523852375236523552314
:102C400045233523252315230523F522E522D52207
:102C5000C522B522A52295228522752265225522FC
:102C600045223522252215220522F521E521D521EF
:102C7000C521B521A52195218521752165215521E4
:102C800045213521252115210521E520D520C52007
:102C9000B520A5209520852075206520552035205C
:102CA000252015200520F51FE51FD51FB51F951FF1
:102CB000851F751F651F551F451F351F251F151FB4
:102CC000051FF51EE51ED51EC51EB51EA51E951EAB
:102CD000851E751E651E551E451E351E251E151E9C
:102CE000051EF51DE51DD51DC51DB51DA51D951D93
:102CF00000000000000000000008302C1D2D100016
:102D000000000000752615261A0000000000552559
:102D1000F524303524D523300000000000060304DC
:102D20000908090903070708060306050708080834
:102D30000808080808080803030606060809080822
:102D4000080808080808040808070A080808080806
:102D5000080808080A080808040704070904070700
:102D600007070706070704050604080708070806FB
:102D70000605070808060707050305080600000002
:102D800000240027002A0000000000250028002B56
:102D90000004040404040404040202020202020304
:102DA000030303030301020408102040800102040E
:102DB0000810200102040810200000000800020191
:102DC0000000030407000000000000000000316262
:102DD00053C4F5A697B988DBEA7D4C1F2E437221B8
:102DE0001087B6E5D4FACB98A93E0F5C6D86B7E4A0
:102DF000D5427320113F0E5D6CFBCA99A8C5F4A79C
:102E000096013063527C4D1E2FB889DAEB3D0C5F82
:102E10006EF9C89BAA84B5E6D7407122137E4F1C79
:102E20002DBA8BD8E9C7F6A59403326150BB8AD975
:102E3000E87F4E1D2C02336051C6F7A495F8C99A5D
:102E4000AB3C0D5E6F4170231285B4E7D67A4B1808
:102E500029BE8FDCEDC3F2A1900736655439085BBB
:102E60006AFDCC9FAE80B1E2D344752617FCCD9E9F
:102E7000AF38095A6B4574271681B0E3D2BF8EDD97
:102E8000EC7B4A192806376455C2F3A09147762592
:102E90001483B2E1D0FECF9CAD3A0B58690435667D
:102EA00057C0F1A293BD8CDFEE79481B2AC1F0A375
:102EB000920534675678491A2BBC8DDEEF82B3E059
:102EC000D1467724153B0A5968FFCE9DAC00C72335
:102ED00011241FBECFEFD8E0DEBFCDBF22E0ACE2B1
:102EE000B1E001C01D92A53AB207E1F711E0A0E000
:102EF000B1E0E2E8F9E502C005900D92AC32B1070D
:102F0000D9F717E1C8E6D7E104C02197FE010E9476
:102F1000B92CC736D107C9F70E943A240C94BF2CAC
:102F20000C940000AF92BF92CF92DF92EF92FF928B
:102F30000F931F93CF93DF936C017B018B01040FE1
:102F4000151FEB015E01AE18BF08C017D10759F07D
:102F50006991D601ED91FC910190F081E02DC601BF
:102F60000995892B79F7C501DF91CF911F910F91B9
:102F7000FF90EF90DF90CF90BF90AF900895FC014D
:102F8000538D448D252F30E0842F90E0821B930BCE
:102F9000541710F0CF96089501970895FC01918D74
:102FA000828D981761F0A28DAE0FBF2FB11D5D9677
:102FB0008C91928D9F5F9F73928F90E008958FEF19
:102FC0009FEF0895FC01918D828D981731F0828DCD
:102FD000E80FF11D858D90E008958FEF9FEF089524
:102FE000FC01918D228D892F90E0805C9F4F821B88
:102FF00091098F739927089581EE91E00E94F0174F
:1030000021E0892B09F420E0822F089580E090E0F0
:10301000892B29F00E94FC1781110C94000008955F
:10302000FC01A48DA80FB92FB11DA35ABF4F2C913D
:10303000848D90E001968F739927848FA689B78934
:103040002C93A089B1898C91837080648C93938D2B
:10305000848D981306C00288F389E02D80818F7DCE
:1030600080830895EF92FF920F931F93CF93DF9386
:10307000EC0181E0888F9B8D8C8D98131AC0E889B4
:10308000F989808185FF15C09FB7F894EE89FF8983
:103090006083E889F98980818370806480839FBF21
:1030A00081E090E0DF91CF911F910F91FF90EF9021
:1030B0000895F62E0B8D10E00F5F1F4F0F73112731
:1030C000E02E8C8D8E110CC00FB607FCFACFE8896C
:1030D000F989808185FFF5CFCE010E941018F1CFCC
:1030E000EB8DEC0FFD2FF11DE35AFF4FF0829FB7E0
:1030F000F8940B8FEA89FB8980818062CFCFCF93D0
:10310000DF93EC01888D8823B9F0AA89BB89E8890F
:10311000F9898C9185FD03C0808186FD0DC00FB6B5
:1031200007FCF7CF8C9185FFF2CF808185FFEDCF33
:10313000CE010E941018E9CFDF91CF91089590E061
:10314000FC01E754F24D2491FC01EB55F24D349112
:10315000FC01EF56F24DE491EE23C9F0222339F041
:10316000233001F1A8F4213019F1223029F1F0E0E7
:10317000EE0FFF1FE957F24DA591B4918FB7F89468
:10318000EC91611126C030953E233C938FBF08958A
:103190002730A9F02830C9F0243049F78091800009
:1031A0008F7D03C0809180008F7780938000DFCF78
:1031B00084B58F7784BDDBCF84B58F7DFBCF8091C5
:1031C000B0008F778093B000D2CF8091B0008F7D18
:1031D000F9CF3E2BDACFCF93DF9390E0FC01EB5594
:1031E000F24D24918F56924DFC0184918823D1F0A9
:1031F00090E0880F991FFC01E358F24DA591B4911E
:10320000FC01E957F24DC591D49161110EC09FB7F1
:10321000F8948C91E22FE0958E238C932881E22301
:10322000E8839FBFDF91CF9108958FB7F894EC9119
:10323000E22BEC938FBFF6CF1F93CF93DF93182F22
:10324000EB0161E00E94EB18209739F460E0812FD8
:10325000DF91CF911F910C949F18CF3FD10511F4AE
:1032600061E0F5CFE12FF0E0E754F24DE491E33077
:1032700031F140F4E130B1F0E230E1F0C038D10595
:103280007CF7E4CFE73029F1E83059F1E430B1F7C9
:1032900080918000806280938000D0938B00C093E7
:1032A0008A0004C084B5806884BDC7BDDF91CF911A
:1032B0001F91089584B5806284BDC8BDF7CF809109
:1032C0008000806880938000D0938900C09388003C
:1032D000EDCF8091B00080688093B000C093B300C0
:1032E000E5CF8091B00080628093B000C093B400BD
:1032F000DDCF8E50806480937C0080917A00806462
:1033000080937A0080917A0086FDFCCF80917800CE
:103310009091790008953FB7F8948091A20190911F
:10332000A301A091A401B091A50126B5A89B05C059
:103330002F3F19F00196A11DB11D3FBFBA2FA92F34
:10334000982F8827BC01CD01620F711D811D911D31
:1033500042E0660F771F881F991F4A95D1F708959D
:103360002FB7F89460919E0170919F018091A00108
:103370009091A1012FBF089520915301260F33276B
:10338000331F21323105ECF420917701FC0190E0EC
:1033900080E0243069F082E00895A09153012191EA
:1033A000AC014D5C5E4FA40FB52FB11D2C9301965F
:1033B000861798F380915301680F6093530180E062
:1033C000089581E0089508958FEF9FEF08958FEF9E
:1033D0009FEF089580912C0190E09195819591093E
:1033E0000895CF93DF93CB01EA01642F0E94BC19AB
:1033F000CE01DF91CF910895CF93DF931F92CDB788
:10340000DEB7698361E0CE0101960E94BC1981E0BC
:1034100090E00F90DF91CF910895FC018089918910
:103420006817790708F05BC08289938948175907A4
:1034300008F055C02898299881A186171706D1F061
:103440008AE28EBD0000009601D001C0089561A3FC
:10345000289A1EBC00000096009601D001C0089575
:103460008581680F6EBD00000096009601D001C0F6
:103470000895289880A184171506D1F08BE28EBD9F
:103480000000009601D001C0089540A3289A1EBCF8
:1034900000000096009601D001C008958681480F73
:1034A0004EBD00000096009601D001C008952898F6
:1034B0008CE28EBD00960096009601D001C0089562
:1034C000289A3EBD02D001D001C0089500002EBD53
:1034D00000000096009601D001C00895299A089531
:1034E0000F93FC018FEF80A381A3289829988AE28B
:1034F0008EBD00960096009601D001C00895289ACE
:103500001EBC00000096009601D001C00895858180
:10351000680F6EBD02D001D001C0089500001EBC2E
:1035200000000096009601D001C008958581280F03
:103530002EBD00000096009601D001C00895289885
:103540008BE28EBD00960096009601D001C00895D2
:10355000289A1EBC00000096009601D001C0089574
:103560008681480F4EBD02D001D001C008950000F1
:103570001EBC00000096009601D001C0089586810F
:10358000080F0EBD00000096009601D001C00895FE
:1035900028988CE28EBD00000096009601D001C0F4
:1035A0000895289A0F910895CF92DF92EF92FF929B
:1035B0000F931F93CF93DF936901E8018A010C0FEA
:1035C0001D1F015011099B012C0D3D1D215031097A
:1035D0000E94701ACC16DD062CF49C2D8D2D6E01E8
:1035E000C92FD82F219790F0C601009771F0FEBC2B
:1035F00002D001D001C008950000EEBC00960096F4
:1036000001D001C00895019791F7ECCF299ADF917D
:10361000CF911F910F91FF90EF90DF90CF90089581
:103620002F923F924F925F926F927F928F929F92D2
:10363000AF92BF92CF92DF92EF92FF920F931F93C0
:10364000CF93DF93CDB7DEB76E970FB6F894DEBF9A
:103650000FBECDBFDC016D3089F192960C9192972F
:10366000462F4052550B9A01023009F042C0FA0130
:10367000E35EF24D449150E04A5F5F4F487FE0E1E6
:10368000F0E093967C919397A72EB12CAE9E70019B
:10369000AF9EF00CBE9EF00C112456968D919C911D
:1036A00057976A3009F040C08E0D9F1D57969C9326
:1036B0008E93569755961C921E92549781E090E0F7
:1036C0006E960FB6F894DEBF0FBECDBFDF91CF91DF
:1036D0001F910F91FF90EF90DF90CF90BF90AF9030
:1036E0009F908F907F906F905F904F903F902F9022
:1036F000089555E0059FC0011124FC01EE50F34DE3
:1037000045915491420F531FFA014491FC01EC5032
:10371000F34DE49150E0F0E0013009F0B2CFE8E081
:10372000F0E046E050E0ADCF9696EC919697EE2310
:10373000F1F0A49EF001A59EF00DB49EF00D1124B1
:1037400054964D915C9155974E0F5F1F5096ED9199
:10375000FC9151974E175F0750F08E0D9F1D5796A5
:103760009C938E93569755961C921E9254971D01CA
:10377000A02FB0E0F1016688778844885588C28C14
:10378000D38C448D558D5A874987A130B10509F0F6
:1037900047C180899189481659060CF070C082890A
:1037A0009389681679060CF06AC0C20156E0759FCD
:1037B000800D911D1124181619060CF060C0C5016A
:1037C000B3E0880F991FBA95E1F7860D971D18167B
:1037D00019060CF054C085E0689F70011124713007
:1037E00009F0DCC0F20135965F0129853A85C216E1
:1037F000D30609F45DC08301085F1F4F9F01A30139
:10380000B201C1010E94701ADE01119690E080E0C1
:10381000B7016B5C784DFB01E80FF91FE491ED9364
:10382000019685309105B9F71E823A854D2D88E0C5
:1038300091E061E070E06C0F7D1F6B5F7F4FFE01D8
:1038400031962191292349F10DB407FEFDCF4EBDDC
:1038500000000DB407FEFDCFCEBC6E177F0789F7C1
:10386000990F0DB407FEFDCF3EBD0DB407FEFDCF91
:10387000E985EEBD815019F70DB407FEFDCFF101CA
:1038800083A1F6E08F9FC0011124F10124893589BD
:10389000820F931F958B848B11CF0DB407FEFDCF44
:1038A0003EBD00000DB407FEFDCF59855EBDD5CFEE
:1038B000E418F50897012B5C384D38872F83A30156
:1038C0004F5F5F4F5C874B87C30102969A8789875A
:1038D00083010D5F1F4FF3013496FE87ED8793013F
:1038E0002B5F3F4F388B2F874B5F5F4F5A8B498B36
:1038F000730157E0E50EF11CEF81F885E40DF51D2D
:10390000949090FE06C09601A301B201C1010E94ED
:103910000D1A91FE07C096014B855C85B201C1016D
:103920000E940D1A92FE07C0960149855A85B20180
:10393000C1010E940D1A93FE06C09601A801B201B2
:10394000C1010E940D1A94FE07C096014D855E8547
:10395000B201C1010E940D1A95FE07C096014F8564
:103960005889B201C1010E940D1A96FE07C0960146
:1039700049895A89B201C1010E940D1A97FE06C0F9
:103980009601A701B201C1010E940D1A8FEF481ADA
:10399000580AA414B50409F0AFCF71CF18861F825E
:1039A000F701EB5CF84DFA8BE98B272F30E0388B71
:1039B0002F87E989FA894F815885E40FF51FE49133
:1039C000430158E05B878E2F90E09E878D877601BC
:1039D000E0FD06C0E985FA85CE16DF0641F07F01DD
:1039E00085019501A401B201C1010E94D41AED859F
:1039F000FE85F595E795FB85F150FB872F85388986
:103A0000820E931EF111DFCF4F8158854F5F5F4FBC
:103A100058874F834A0C5B1C4530510551F62FCF18
:103A2000C901880F991FA230B10509F002C1FC013C
:103A3000E05DF34D8591949198878F83F901E35E62
:103A4000F24DE4912E2F30E03C872B8740E150E08F
:103A50005E874D87C98ADB8A129709F020C24B85A1
:103A60005C85A49EC001A59E900DB49E900D11246E
:103A7000AC01440D551DF1012089318942175307CE
:103A800008F003CF8B859C8506969C01E3E0359575
:103A90002795EA95E1F7388B2F8749855A85C41613
:103AA000D50609F0ECC01A861986C20107969A8BD2
:103AB000898BF2013696FC8BEB8B92012B5F3F4F8B
:103AC0003E8B2D8BA2014C5F5F4F588F4F8B04971D
:103AD0009A8F898F3497FC8FEB8F245031093E8F5A
:103AE0002D8F49855A858D859E854817590709F47C
:103AF000CCC1F101E48CF58C828D938D8E159F05E0
:103B000081F003A110E04B855C85049F9001059F27
:103B1000300D149F300D1124A301B201C1010E9488
:103B2000D41A912C812C63E0A62EF10123A14F859C
:103B300058894815590509F47EC1EF81F885E80DCB
:103B4000F91DB490BB2009F470C0740153E0EE0C71
:103B5000FF1C5A95E1F7213009F0D9C0B7FE0AC021
:103B6000F101228D338DA301B2016E0D7F1DC101C4
:103B70000E940D1AB6FE0BC0F101228D338DA301F8
:103B80006D8D7E8D6E0D7F1DC1010E940D1AB5FEDB
:103B90000BC0F101228D338DA3016B8D7C8D6E0DD9
:103BA0007F1DC1010E940D1AB4FE0BC0F101228DD0
:103BB000338DA301698D7A8D6E0D7F1DC1010E9429
:103BC0000D1AB3FE0BC0F101228D338DA3016F8955
:103BD000788D6E0D7F1DC1010E940D1AB2FE0BC0C3
:103BE000F101228D338DA3016D897E896E0D7F1DBC
:103BF000C1010E940D1AB1FE0BC0F101228D338D5F
:103C0000A3016B897C896E0D7F1DC1010E940D1A75
:103C1000B0FE0BC0F101228D338D69897A896E0D5A
:103C20007F1DA301C1010E940D1A2FEF821A920A73
:103C30007CCF55E0059F80011124F801E051F34D40
:103C400045915491840F951FFC01E590F490F886FE
:103C5000EF82F801EE50F34D85919491FC01E20F53
:103C6000F31FE4918E2F90E09C878B870C50134DAF
:103C7000F8010491202F30E03E872D87EBCE713084
:103C800009F011CF8301015011092D853E85020FE6
:103C9000131F2F85388983E0220F331F8A95E1F7A0
:103CA000240D351D21503109A301B201C1010E942B
:103CB000701A7A8530E020E04D855E85241735073F
:103CC00009F4DFC090E080E0EF85F889E817F90794
:103CD00009F4CCC0EF81F885E80FF91FE49148E0C2
:103CE00050E060E8FE2FF62309F4B6C00DB407FEDD
:103CF000FDCFFB89FEBD00000DB407FEFDCFF989A5
:103D0000FEBD66954150510969F70196DDCF30E05F
:103D10002E9D60012F9DD00C3E9DD00C1124C40C13
:103D2000D51CB7FE09C0F101E28CF38C8901A30117
:103D3000B601C1010E94D41AB6FE0DC0F10123A143
:103D400030E0E28CF38CB601620F731F8901A3018E
:103D5000C1010E94D41AB5FE0FC0F10123A130E0C9
:103D6000E28CF38CB901660F771F6C0D7D1D890104
:103D7000A301C1010E94D41AB4FE10C0F10183A1B5
:103D8000282F30E0E28CF38CB6018A9D600D711D06
:103D900011248901A301C1010E94D41AB3FE11C0EC
:103DA000F10123A130E0E28CF38CB901660F771F9B
:103DB000660F771F6C0D7D1D8901A301C1010E9453
:103DC000D41AB2FE11C0F10183A1282F30E0E28C99
:103DD000F38CB601F5E08F9F600D711D11248901F0
:103DE000A301C1010E94D41AB1FE11C0F10183A147
:103DF000282F30E0E28CF38CB601F6E08F9F600D47
:103E0000711D11248901A301C1010E94D41AB0FEC1
:103E10000CCFF10183A1282F30E0E28CF38CB601A6
:103E2000F7E08F9F600D711D11248901A301C1016D
:103E30000E94D41AFACE620E711C49855A854F5FD2
:103E40005F4F5A8749878F819885EF85F8898E0F54
:103E50009F1F98878F8345CE0DB407FEFDCF7EBD93
:103E600000000DB407FEFDCFF9854ACF2F5F3F4F0D
:103E70004F8158858F859889480F591F58874F83E0
:103E80001BCF0DB407FEFDCF299AF10123A14B856D
:103E90005C85249FC001259F900D1124F6CC1EBC8B
:103EA000EB85FC852D853E85E29F4001E39F900CCC
:103EB000F29F900C1124F10183A1228D338DE48CAB
:103EC000F58C813021F42E153F0509F0B2C02E1576
:103ED0003F05C1F090E02D853E85289F8001299FF8
:103EE000100D389F100D11244B855C85489F900163
:103EF000499F300D589F300D1124A301B201C1011B
:103F00000E94D41AF101C3A0CC9CF02D1124FF8B88
:103F1000CA94C986D12CC12C3985232F30E03E8B21
:103F20002D8BC814D9040CF080C0EF81F8858491E2
:103F30003196F887EF8387FF74C08F778F5F8F8705
:103F4000C6016B857C850E94A52CF985FF2309F4A9
:103F500041C0F10123A130E0289F7001299FF00C9E
:103F6000389FF00C1124E40CF51C269F5001279F6C
:103F7000B00C369FB00C1124A60CB71CFF85FD8732
:103F80002D8521502D872F3F09F10DB407FEFDCF60
:103F90000D891E890A0D1B1D2D893E892E0D3F1D81
:103FA000A501B701C1010E94701A39853323B9F008
:103FB0008F898150F0F00DB407FEFDCF4B894EBDC7
:103FC0000DB407FEFDCF59895EBDF3CF4F85C40EFA
:103FD000D11CA7CF7C01E40CF51C5B01CDCF0DB447
:103FE00007FEFDCF8B898EBD0DB407FEFDCF9989ED
:103FF0009EBDF10183A190E0E80EF91E4B855C8522
:10400000849F9001859F300D949F300D1124240DC5
:10401000351DE216F30608F4B3CFA80EB91E7201DF
:10402000AFCF8F5FC80ED11C7CCF0DB407FEFDCF84
:104030002BCF8301015011098D859E85080F191F13
:10404000920121503109EB85FC852E0F3F1FA30102
:10405000B201C1010E94701A181419040CF02CC08E
:104060002F8138852F5F3F4FEF81F885849187FF3F
:104070001BC08F778F5F90E0881A990AF101428DFB
:10408000538D009771F05EBD02D001D001C008953C
:1040900000004EBD0096009601D001C00895019722
:1040A00091F738872F83D8CF8F5F90E0881A990ACD
:1040B000F101448D558DE5CF0DB407FEFDCFE4CE63
:1040C000089590E080E0089570E060E08AE00E944A
:1040D0001C1970E060E089E00C941C196091B50136
:1040E0007091B6018091000190910101883E93404A
:1040F00059F190E080E00E94E92920E030E040EAB8
:1041000050E40E94262A20E030E040E85AE30E9472
:10411000262A23E331E444E35EE30E947F2B20E080
:1041200030E040E251E40E94262A0E94F12B25E56E
:10413000269FA001279F500D1124CA0164E670E05C
:104140000E94A52CCB01089590E080E0089570E0D6
:1041500060E08AE00E941C1970E060E089E00E9443
:104160001C1960E084E00E949F1880E58093D901CB
:104170000895CF93DF93C8EED3E0D0930101C093AD
:1041800000010E946420D0930601C0930501DF91D5
:10419000CF9108950E94B9208091DB019091DC01BC
:1041A000877F9093DC018093DB018CE38093D901BE
:1041B00060E087E00C949F181F93CF93DF9385ED09
:1041C0008093BC0080912F0190913001A09131012A
:1041D000B09132010796A11DB11D23E0B695A795B8
:1041E000979587952A95D1F72091BC0024FD03C0AF
:1041F0001092770152C040912F015091300160918F
:10420000310170913201452B462B472B69F3009702
:10421000A105B10541F025E32A95F1F700000197CA
:10422000A109B109E1CF80912E01C1E0C0932D0118
:10423000882399F1D091B8001091BA008091BC0008
:104240008A7B8093BC0060E082E10E949F1860E05E
:1042500083E10E949F1810927701C0937901109218
:10426000780161E082E10E949F1861E083E10E9491
:104270009F188091B9008E7F8093B9008091B9001A
:104280008D7F8093B90088E48093B80085E48093A3
:10429000BC001093BA00D093B800DF91CF911F916A
:1042A00008956091B7017091B801813021F4609157
:1042B000B9017091BA0190E080E00E94E9299B0168
:1042C000AC0160E070EC8FE794E40E947F2B20E06B
:1042D00030E040E85FE30E94122B9B01AC0160E0FC
:1042E00070EE8BEA96E40E947F2B20E030EE42E9EC
:1042F00055E40E947F2B0E94282C20E030EE46E7F8
:1043000055E40E947F2B2FE03FEC4BE55BE30E94DE
:10431000132B9B01AC0160E070E080E89FE30E94FA
:104320007F2B23E333E948E853E40E94122B20E07B
:1043300030E048EC52E40E94262A0E94F12BCB0187
:1043400008951F920F920FB60F9211242F933F934F
:104350004F935F936F937F938F939F93AF93BF938D
:10436000EF93FF9381EE91E00E941018FF91EF917F
:10437000BF91AF919F918F917F916F915F914F917D
:104380003F912F910F900FBE0F901F9018951F9285
:104390000F920FB60F9211242F938F939F93EF9349
:1043A000FF93E091F101F091F2018081E091F7013A
:1043B000F091F80182FD1BC090818091FA018F5F1E
:1043C0008F732091FB01821741F0E091FA01F0E038
:1043D000EF51FE4F958F8093FA01FF91EF919F91DE
:1043E0008F912F910F900FBE0F901F901895808185
:1043F000F4CF1F920F920FB60F9211242F933F9379
:104400008F939F93AF93BF9380919E0190919F0153
:10441000A091A001B091A10130919D0123E0230F53
:104420002D3758F50196A11DB11D20939D01809354
:104430009E0190939F01A093A001B093A101809150
:10444000A2019091A301A091A401B091A5010196B0
:10445000A11DB11D8093A2019093A301A093A4017B
:10446000B093A501BF91AF919F918F913F912F91F3
:104470000F900FBE0F901F90189526E8230F0296FD
:10448000A11DB11DD2CF1F920F920FB60F92112412
:104490002F933F934F935F936F937F938F939F934C
:1044A000AF93BF93EF93FF938091B900887F8036DD
:1044B00009F44AC0F0F5883209F4A5C018F5803136
:1044C00009F499C0B8F4882309F4F5C0883009F4D8
:1044D00092C0FF91EF91BF91AF919F918F917F918A
:1044E0006F915F914F913F912F910F900FBE0F9061
:1044F0001F901895883109F486C0803251F7809357
:10450000760114C0803409F49BC040F48033B9F3C1
:104510008833F9F68093760185ECAEC0803509F4D6
:1045200083C0883509F494C0883499F60E94DC2051
:10453000D0CF883909F48AC038F5883729F050F48B
:10454000883611F0803729F683E080937701109246
:10455000750155C0883809F479C0803919F0803860
:1045600009F0B7CF80917501803208F06FC0E091FB
:10457000750181E08E0F809375018091BB00F0E0A2
:10458000EB5AFE4F80833BC0803B39F0D0F4803A39
:1045900009F477C0883A09F09CCF84E080937701D2
:1045A0001092540110925301F0E0E0E009958091DF
:1045B000530181110FC081E08093530110923301A8
:1045C00009C0803C09F4A8CF883C09F4A5CF883BFA
:1045D00009F07FCFE091540181E08E0F8093540168
:1045E000F0E0ED5CFE4F80818093BB009091540120
:1045F0008091530129C080919C018093BB0085EC80
:104600008093BC0066CF90919B0180919A0198178E
:1046100058F5E0919B0181E08E0F80939B01F0E0C3
:10462000E658FE4F8081E9CFE0919B0181E08E0F3B
:1046300080939B018091BB00F0E0E658FE4F8083A1
:1046400090919B0180919A019817C8F285E8D8CF84
:10465000E0919B0181E08E0F80939B018091BB00D4
:10466000F0E0E658FE4F80838091790181115ECFA2
:1046700081E08093780184EA8093BC0010927701F6
:1046800028CF85EC8093BC00109277018091750152
:10469000803230F4E0917501F0E0EB5AFE4F108269
:1046A0006091750170E085E591E0F0E0E0E009954A
:1046B000109275010ECF1092760138CF1F920F9293
:1046C0000FB60F9211248F929F92AF92BF92CF920A
:1046D000DF92EF92FF922F933F934F935F936F93ED
:1046E0007F938F939F93AF93BF93EF93FF93A8957F
:1046F0000FB6F894A895809160008861809360005F
:10470000109260000FBE0E94CA200E948B194B01BC
:104710005C0182E3C82ED12CE12CF12C0E948B1974
:10472000681979098A099B09683E734081059105DA
:10473000A8F321E0C21AD108E108F10888EE880E3A
:1047400083E0981EA11CB11CC114D104E104F10442
:1047500029F70E94A720F0E0E0E00994FF91EF9193
:10476000BF91AF919F918F917F916F915F914F9189
:104770003F912F91FF90EF90DF90CF90BF90AF903F
:104780009F908F900F900FBE0F901F901895CF9312
:10479000DF93E1EEF1E01382128288EE93E0A0E075
:1047A000B0E084839583A683B78382E191E091830F
:1047B000808385EC90E09587848784EC90E09787F0
:1047C000868780EC90E0918B808B81EC90E0938BDE
:1047D000828B82EC90E0958B848B86EC90E0978BBB
:1047E000868B118E128E138E148ECEE7D2E01B8232
:1047F0001A8284E291E09983888389E08A8788E03D
:104800008B8787E08C871F861D8660E00E949F183B
:1048100061E08C850E94EB18289A61E08B850E94EC
:10482000EB18299A61E08A850E94EB1880E890E0F5
:10483000998B888B80EA90E09B8B8A8B1DA21D8AC6
:104840001C8A1F8A1E8A81E08AA38BA32FEF3FEF69
:104850003B8F2A8F1D8E1C8E198E188E8EA31CA244
:104860008FEF88A389A386ED90E09F8F8E8FDF91D5
:10487000CF910895789484B5826084BD84B58160B9
:1048800084BD85B5826085BD85B5816085BD80911B
:104890006E00816080936E00109281008091810093
:1048A000826080938100809181008160809381008B
:1048B000809180008160809380008091B10084604D
:1048C0008093B1008091B00081608093B0008091AE
:1048D0007A00846080937A0080917A00826080936D
:1048E0007A0080917A00816080937A0080917A00CA
:1048F000806880937A001092C10080918100887F47
:10490000816080938100F89414BE88E180936000F8
:1049100084E48093600089E0F0E0E0E08093570059
:104920002491E3E0F0E0809357009491E2E0F0E01E
:104930008093570084912F3F29F49A3D19F48C5F9E
:10494000823048F08091DB019091DC019860909377
:10495000DC018093DB0178941092C201E091F101B7
:10496000F091F20182E08083E091ED01F091EE019F
:104970001082E091EF01F091F00183E380831092C7
:10498000F901E091F501F091F60186E08083E09174
:10499000F301F091F401808180618083E091F30163
:1049A000F091F401808188608083E091F301F091BF
:1049B000F401808180688083E091F301F091F4013B
:1049C00080818F7D808383B7817F83BF61E087E0B3
:1049D0000E94EB1860E087E00E949F188FE891E04A
:1049E0000197F1F700C0000060E08AE00E949F1884
:1049F00060E089E00E949F1860E084E00E949F18B8
:104A000060E08EE00E949F1860E08FE00E949F1897
:104A100061E08AE00E94EB1861E089E00E94EB18F7
:104A200061E084E00E94EB1860E08EE00E94EB18E9
:104A300060E08FE00E94EB188FE380937E0098EE99
:104A4000E92E93E0F92E28EEC22E23E0D22E3AEF83
:104A5000732E80E0A82E80E0B82EA8950E94B01991
:104A60000091DD011091DE012091DF013091E00124
:104A7000601B710B820B930B6531710581059105EC
:104A800008F474C08091DB0183FF61C08091DA017A
:104A90008F5F8093DA01843008F459C0809104015B
:104AA00090E06091030170E040910001509101019C
:104AB0002091050130910601241B350B12161306B7
:104AC00054F4483EE3E05E0708F4CB0128173907A9
:104AD00084F4C9010EC0919581959109493EF3E096
:104AE0005F0720F088279927861B970B821793076B
:104AF00084F3840F951F9093010180930001EC01D2
:104B0000C85ED340893E23E092071CF4E701C81B2E
:104B1000D90B8131E4E09E0708F45AC1BE01DD0FD4
:104B2000880B990B0E94EB292CE53FE842E85EE3F5
:104B30000E94262A0E94F12B70E08AE00E941C1934
:104B400070E060E089E00E941C191092DA01809107
:104B5000D9018F5F8093D9010E94B0196093DD0164
:104B60007093DE018093DF019093E0010E94B01901
:104B70000091D5011091D6012091D7013091D80133
:104B8000601B710B820B930B6B30710581059105D6
:104B900008F4CDC083E10E947919EC016091A8016D
:104BA0007091A90190E080E00E94E9292AE939E9A1
:104BB00049E55FE30E94262A1B012C01BE0190E01B
:104BC00080E00E94E9292AE939E949E15EE30E948F
:104BD000262A9B01AC01C201B1010E94132B0E9445
:104BE000F12B7093B4016093B3017093A9016093AA
:104BF000A8018EE00E947919EC018FE00E947919DA
:104C00008C179D0708F4CE01BC0190E080E00E9463
:104C1000E9292AE939E949E95EE30E94262A1B01CC
:104C20002C016091AA017091AB0190E080E00E949C
:104C3000E92923E333E343E35FE30E94262A9B0150
:104C4000AC01C201B1010E94132B0E94F12B7093A1
:104C5000B6016093B5017093AB016093AA0181E145
:104C60000E947919EC016091AC017091AD0190E066
:104C700080E00E94E9292AE939E949E55FE30E94D9
:104C8000262A1B012C01BE0190E080E00E94E92948
:104C90002AE939E949E15EE30E94262A9B01AC0139
:104CA000C201B1010E94132B0E94F12B7093B80135
:104CB0006093B7017093AD016093AC0181E10E94F4
:104CC0007919EC016091AE017091AF0190E080E044
:104CD0000E94E9292AE939E949E55FE30E94262A89
:104CE0001B012C01BE0190E080E00E94E9292AE925
:104CF00039E949E15EE30E94262A9B01AC01C20129
:104D0000B1010E94132B0E94F12B7093BA016093A2
:104D1000B9017093AF016093AE010E94B019609326
:104D2000D5017093D6018093D7019093D8018091DB
:104D3000D901883711F40E94CA208091D90187FDDA
:104D40000E94A72081EE91E00E94F017892B09F4C0
:104D500086C081EE91E00E94CE17D82F8091D401B9
:104D6000833008F450C02091D101E22FE095F0E0AB
:104D7000E353F24DE4918091D2019091D3013091AF
:104D8000D201E327F0E0E353F24DE491C091D30167
:104D9000EC27F0E0E353F24DE4910091DB01109138
:104DA000DC01DE17C9F10E94B9201092D001809178
:104DB000D2018093D1018091D3018093D201D0930D
:104DC000D3010E7F00611093DC010093DB0147C02B
:104DD000803C9340A8F470E060E08AE00E941C19D7
:104DE000BE01DD0F880B990B0E94EB292CE53FE8F3
:104DF00042E85EE30E94262A0E94F12B70E0A2CED8
:104E00000E946420A2CEE82FF0E0EF52FE4FD08344
:104E10008F5F8093D40196CF4091D001423008F447
:104E2000DFC1A80141605093DC014093DB012836CB
:104E300009F48BC108F0F9C02E3109F470C108F0F3
:104E4000E3C0293109F412C11092D4018091DB0131
:104E50009091DC018F7E9093DC018093DB010E94B6
:104E6000B0190091CC011091CD012091CE0130916B
:104E7000CF01601B710B820B930B653F7140810565
:104E80009105F8F00E946E20C091DB01D091DC0109
:104E900020910C0130910D018217930708F4A4C1F1
:104EA0000E94B920C460D093DC01C093DB010E9452
:104EB000B0196093CC017093CD018093CE01909393
:104EC000CF010E94B0190091C8011091C901209131
:104ED000CA013091CB01601B710B820B930B613DBA
:104EE000774081059105E8F1C091DB01D091DC01AB
:104EF0006091B3017091B40190E080E00E94E929D3
:104F000020E030E040EA50E40E94262A20E030E031
:104F100040E85AE30E94262A23E331E444E35EE3B7
:104F20000E947F2B20E030E048EC52E40E94262AC9
:104F30000E94F12B655873406338734008F456C1E2
:104F40000E94B920C068D093DC01C093DB010E94AD
:104F5000B0196093C8017093C9018093CA019093FE
:104F6000CB010E94B0190091C4011091C50120919C
:104F7000C6013091C701601B710B820B930B613A24
:104F80007F408105910558F180E00E9451218C01FC
:104F900081E00E945121C091DB01D091DC01209180
:104FA0000A0130910B010217130740F42091080108
:104FB000309109018217930708F41AC10E94B920A1
:104FC000C260D093DC01C093DB010E94B0196093F2
:104FD000C4017093C5018093C6019093C7011091DD
:104FE000C301133008F006C1113008F42CC1E12FC1
:104FF000F0E0E454FE4F608181EE91E00E943218AF
:105000001F5F1093C30113C1233509F4C6C02A35AD
:1050100009F01ACF8131E7E29E0710F080E197E2B4
:1050200090930901809308010FCF243A09F482C0BC
:1050300088F4213709F493C0213909F005CF909104
:10504000C0018091BF019813FFCE3093C001C0937F
:10505000BF01FACE273C71F0273E09F0F5CE0B7F59
:1050600001601093DC010093DB01EECEE0E0FCE395
:105070000994EACE1092D9012091C2012C3018F483
:105080002C5F2093C201813DF7E09F0708F0DCCE42
:10509000980126783327232B09F0D6CE9801207269
:1050A0003270232B39F0893E23E0920718F00E94DA
:1050B000B920CACE980120743170232B21F0883E8C
:1050C000E3E09E07A0F3909306018093050103FDA2
:1050D000BBCE61E08AE00E94EB1861E089E00E94AB
:1050E000EB1861E084E00E94EB1870E060E08AE079
:1050F0000E941C1970E060E089E00E941C1961E0C8
:1051000084E00E949F18D0920101C09200010E9489
:10511000642061E087E00E949F180960A2CF813D72
:10512000F7E09F0710F080ED97E090930D018093DA
:105130000C018ACE813127E2920710F080E197E2DC
:1051400090930B0180930A017FCE8091C2018C3035
:1051500018F48C5F8093C2010E94CA2075CE3093F0
:105160000401C09303013B3FA8F070920401CB3FC0
:1051700048F07092030180910401811103C081E025
:10518000809304018091030181115ECE81E08093C0
:1051900003015ACECB3F68F7EECF30FF1CC0009121
:1051A000020110E0C80101963817190609F04CCE2B
:1051B0008091B001DC2FC82FBE01C8010E94EA2AED
:1051C000BE01C80193950E94EA2ABE01C8019E5FF4
:1051D0000E94EA2A39CEC093B0013093020134CE46
:1051E0004F5F4093D00130CECB7F5DCECF77ABCE3B
:1051F000CD7FE7CE1330D9F4E091BC01E095F0E02B
:10520000E353F24DE4918091BD01E827F0E0E353D0
:10521000F24DE4916091BE01E627F0E0E353F24DD8
:10522000649181EE91E00E9432181092C301A114A2
:10523000B10409F412CC0E94FC17882309F40DCCA8
:105240000E94000006CC0091C201043080F350900F
:10525000C10181E0850D8093C101F9E2F51538F3B4
:10526000E52DF0E0EA5CF64D0C94B92C602971292B
:1052700079297F2971297929A42971297929AA29CC
:105280006029712979297F2971297929B029712902
:10529000792917296029712979297F297129792983
:1052A000B0297129792917296029712979297F293C
:1052B00071297929B0297129792917297129792921
:1052C000C091DB01D091DC01D460D093DC01C093AC
:1052D000DB018FE88093BC01C093BD01D093BE0178
:1052E00086CE0E946E20EC0104500093C2018CE136
:1052F000F1CFC091B101D091B20187EAEBCF6091BB
:10530000B3017091B40190E080E00E94E92920E0AF
:1053100030E040EA50E40E94262A20E030E040E8F5
:105320005AE30E94262A23E331E444E35EE30E9429
:105330007F2B20E030E048EC52E40E94262A0E94B5
:10534000F12BEB0183EBC6CF80E00E945121EC01F1
:1053500089EFC0CF81E00E945121EC0188E4BACFEF
:105360006090C0018091BF01681609F460CFC62D1E
:10537000D0E044244394460C60FE13C080910701A2
:1053800090E00196C817D90719F04092C0014FCF9D
:105390000091BB01D02B4092C0015092C1018AE91B
:1053A00099CFCE010E94E42A082F392ECE01939581
:1053B0000E94E42A4C01CE019E5F0E94E42A8815D7
:1053C000990511F4082F392E3092BB016092070124
:1053D000E1CFE89409C097FB3EF4909580957095D5
:1053E00061957F4F8F4F9F4F9923A9F0F92F96E931
:1053F000BB279395F695879577956795B795F111A6
:10540000F8CFFAF4BB0F11F460FF1BC06F5F7F4F42
:105410008F4F9F4F16C0882311F096E911C0772354
:1054200021F09EE8872F762F05C0662371F096E85D
:10543000862F70E060E02AF09A95660F771F881F2C
:10544000DAF7880F9695879597F908950E94392A7B
:105450000C94AA2A0E949C2A38F00E94A32A20F0C9
:10546000952311F00C94932A0C94992A11240C94EE
:10547000DE2A0E94BB2A70F3959FC1F3950F50E07E
:10548000551F629FF001729FBB27F00DB11D639FF6
:10549000AA27F00DB11DAA1F649F6627B00DA11D9C
:1054A000661F829F2227B00DA11D621F739FB00D42
:1054B000A11D621F839FA00D611D221F749F3327B2
:1054C000A00D611D231F849F600D211D822F762F4B
:1054D0006A2F11249F5750409AF0F1F088234AF028
:1054E000EE0FFF1FBB1F661F771F881F9150504094
:1054F000A9F79E3F510580F00C94932A0C94DE2A64
:105500005F3FE4F3983ED4F3869577956795B7951A
:10551000F795E7959F5FC1F7FE2B880F911D969534
:10552000879597F9089597F99F6780E870E060E0A4
:1055300008959FEF80EC089500240A94161617062C
:1055400018060906089500240A9412161306140674
:1055500005060895092E0394000C11F4882352F0D7
:10556000BB0F40F4BF2B11F460FF04C06F5F7F4F8F
:105570008F4F9F4F089557FD9058440F551F59F076
:105580005F3F71F04795880F97FB991F61F09F3F30
:1055900079F087950895121613061406551FF2CF59
:1055A0004695F1DF08C0161617061806991FF1CFA9
:1055B00086957105610508940895E894BB276627D0
:1055C0007727CB0197F90895A8E1B0E042E050E0D9
:1055D0000C94F22A0196272F0E94012B0C94002B89
:1055E000DC01CB01FC01F999FECF06C0F2BDE1BDA3
:1055F000F89A319600B40D9241505040B8F7089592
:10560000262FF999FECF92BD81BDF89A019700B47B
:10561000021639F01FBA20BD0FB6F894FA9AF99A1B
:105620000FBE08955058BB27AA270E942A2B0C941E
:10563000AA2A0E949C2A38F00E94A32A20F039F45A
:105640009F3F19F426F40C94992A0EF4E095E7FB99
:105650000C94932AE92F0E94BB2A58F3BA176207C9
:1056600073078407950720F079F4A6F50C94DD2ADA
:105670000EF4E0950B2EBA2FA02D0B01B90190016D
:105680000C01CA01A0011124FF27591B99F0593FB1
:1056900050F4503E68F11A16F040A22F232F342FF9
:1056A0004427585FF3CF469537952795A795F04047
:1056B0005395C9F77EF41F16BA0B620B730B840B5C
:1056C000BAF09150A1F0FF0FBB1F661F771F881F14
:1056D000C2F70EC0BA0F621F731F841F48F487956C
:1056E00077956795B795F7959E3F08F0B0CF93955E
:1056F000880F08F09927EE0F9795879508950E94D7
:10570000932B0C94AA2A0E94A32A58F00E949C2A48
:1057100040F029F45F3F29F00C94932A51110C9426
:10572000DE2A0C94992A0E94BB2A68F39923B1F3CC
:10573000552391F3951B550BBB27AA2762177307B7
:10574000840738F09F5F5F4F220F331F441FAA1F4B
:10575000A9F335D00E2E3AF0E0E832D09150504007
:10576000E695001CCAF72BD0FE2F29D0660F771FB5
:10577000881FBB1F261737074807AB07B0E809F09B
:10578000BB0B802DBF01FF2793585F4F3AF09E3F20
:10579000510578F00C94932A0C94DE2A5F3FE4F3D1
:1057A000983ED4F3869577956795B795F7959F5F63
:1057B000C9F7880F911D9695879597F90895E1E0AF
:1057C000660F771F881FBB1F621773078407BA070E
:1057D00020F0621B730B840BBA0BEE1F88F7E09569
:1057E00008950E94C32A88F09F5798F0B92F9927EF
:1057F000B751B0F0E1F0660F771F881F991F1AF0BC
:10580000BA95C9F714C0B13091F00E94DD2AB1E019
:1058100008950C94DD2A672F782F8827B85F39F018
:10582000B93FCCF3869577956795B395D9F73EF454
:1058300090958095709561957F4F8F4F9F4F0895FC
:1058400016F00C94702C0C94992A68940C94932A5A
:105850000E94C32AA8F39923C1F3AEF3DF93CF9339
:105860001F930F93FF92C92FDD2788232AF02197DA
:10587000660F771F881FDAF720E030E040E85FEB23
:105880009FE3883920F0803E38F021968F770E9480
:10589000132BE8E6F0E004C00E94132BE5E9F0E0EA
:1058A0000E947E2C8B01BE01EC01FB2E6F5771090B
:1058B0007595771F880B990B0E94EB2928E132E739
:1058C00041E35FE30E94392AAF2D9801AE01FF90BA
:1058D0000F911F91CF91DF910E942A2B0C94AA2A3D
:1058E0009F3F31F0915020F4879577956795B79554
:1058F000880F911D9695879597F90895DF93CF931B
:105900001F930F93FF92EF92DF927B018C016894BB
:1059100006C0DA2EEF010E94392AFE01E894A59113
:105920002591359145915591A6F3EF010E942A2BBF
:10593000FE019701A801DA9469F7DF90EF90FF90DC
:105940000F911F91CF91DF910895AA1BBB1B51E1CD
:1059500007C0AA1FBB1FA617B70710F0A61BB70BDF
:10596000881F991F5A95A9F780959095BC01CD0184
:105970000895EE0FFF1F0590F491E02D0994F8941F
:02598000FFCF57
:10598200E803FF1E14E803FF581B581BD007000052
:10599200000032189217BF177F18F017CE17E217C0
:0C59A20000000000101B92176120602024
:00000001FF
